:020000002028B6
:100008007E14803120007F08F7008B180B1E1A28F9
:100018000C1D1A280130A4070030A53D0230240623
:100028002504031D1A28A401A501F7208B107708C1
:100038002000FF007E1009002128F001F101F201E3
:10004800F301F401F5012000A001A101A201A3011F
:10005800A401A501A601A701A801A901AA01AB0154
:100068007E10200037286830210099001A1E3A288F
:100078008B018B13DC20B920A32021001D14EA205A
:100088000B168B178B106A2870087104031D7228D1
:100098002D08A7002C08A60072087304031D5C280D
:1000A80018140130CE200130F2000030F300662829
:1000B8000030CE20812079082000A9007808A80007
:1000C800F201F3010130F0000030F10003302000AC
:1000D8002D02013003192C02031848280030200093
:1000E8002D02803003192C0203186A28700371044A
:1000F800031D6A28F001F1016A282000181017086A
:10010800FA00FB017A08A2007B08A3000830A23598
:10011800A30D890B8B281608FA00FB017A08A207A1
:100128007B08A33D2308A1002208A000960197019F
:10013800A201A3012108F9002008F8000800210005
:100148001D0883391C389D009E178F309E0503308B
:100158009E04C230220097000330890BB1280000AA
:10016800210011131D109D100800C03021009500BA
:10017800F50122008C011C3021008C0023008C0129
:10018800F40122008E01083021008E00083023007F
:100198008E000800F90020000E08F8007808F40026
:1001A800790801397412031D741674088E0008004A
:1001B800210011120C1022001D1523009E169D17F8
:1001C8001E121E159F1117309B0008002000980171
:1001D8003F3098051808CF391038980040309900FA
:1001E80080308B00080020000E08F6007608F40026
:1001F800741E002974120129741674088E000800F0
:020000040001F9
:04000E0084CFFFDEBE
:00000001FF
