:040000000128FC2FA8
:100EB000F10020000E08F0007008FB0071080139F5
:100EC0007B12031D7B167B088E00080021001D0885
:100ED00083391C389D009E178F309E05FC309E057F
:100EE0000032210011131D109D10080080302100D8
:100EF0009500FC0122008C0123008C011830210098
:100F00008C00FB0122008E01083023008E00083087
:100F100021008E000800F401F50121009D149D18A8
:100F20008F2F1C080339F200F3017208F4007308D4
:100F3000F5000830F435F50D890B9A2F1B08F200E7
:100F4000F3017208F4077308F53D9D107508F10070
:100F50007408F00008005830210099001A1EAE2FC6
:100F60008B018B137627662721001D14F430F600C1
:100F70007608FA0020000C08F6007608F7000C1E30
:100F8000BA2F8B277108F9007008F800FA010130B8
:100F90007902F53003197802031CD02FFA01FA0AFE
:100FA0000032013058277A08031DDE2F5230F60038
:100FB0002A30890BD92FF60BD92FE62FA330F60054
:100FC0005530890BE12FF60BE12F00000030582738
:100FD0007A08031DF32F5230F6002A30890BEE2FCA
:100FE000F60BEE2FBA2FA330F6005530890BF62FF3
:100FF000F60BF62F0000BA2FFB01FC012000AB2FEF
:020000040001F9
:04000E0084CFFFDEBE
:00000001FF
