:040000000128FC2FA8
:100ED000F10020000E08F0007008FA0071080139D6
:100EE000FA12031DFA167A088E000800F10020009D
:100EF0000E08F0007008FA00710801397A12031D1B
:100F00007A167A088E00080021001D0883391C38E3
:100F10009D009E178F309E0503309E04C230220034
:100F200097000032210011131D109D100800803021
:100F300021009500FB0122008C01183021008C005B
:100F400023008C01FA0122008E01083021008E005E
:100F5000083023008E000800F401F50121009D14E3
:100F60009D18B02F1C080339F200F3017208F40039
:100F70007308F5000830F435F50D890BBB2F1B08FD
:100F8000F200F3017208F4077308F53D9D1075082F
:100F9000F1007408F00008005830210099001A1E72
:100FA000CF2F8B018B139727842721001D14F4303A
:100FB000F6007608F70020000C1EDB2FAC27710826
:100FC000F9007008F80003307902FF300319780245
:100FD000031CEE2F003068270130F82F78087904C1
:100FE000031DF72F0030762701306827F92F0030D6
:100FF000762700306827DB2FFA01FB012000CC2F79
:020000040001F9
:04000E0084CFFFDEBE
:00000001FF
