:040000000128FC2FA8
:100F7800F10020000E08F0007008F3007108013934
:100F88007312031D731673088E0008008030210049
:100F98009500F40122008C0123008C010E30210001
:100FA8008C00F30122008E01093023008E000930E5
:100FB80021008E0008005830210099001A1EE22FE7
:100FC8008B018B13CA270130BC27A330F2005530A0
:100FD800890BEC2FF20BEC2F00000030BC27A3305C
:100FE800F2005530890BF62FF20BF62F0000E72F91
:080FF800F301F4012000DF2FDA
:020000040001F9
:04000E009CCFFFDEA6
:00000001FF
