:040000000128FC2FA8
:100F6E00F10020000E08F0007008F400710801393D
:100F7E007412031D741674088E0008008030210050
:100F8E009500F50122008C0123008C011830210000
:100F9E008C00F40122008E0123008E0121008E01AF
:100FAE0008005830210099001A1EDB2F8B018B137D
:100FBE00C52720000C08F2007208F3000C1EE02F6B
:100FCE000130B7274130F200EE30890BEC2FF20BD7
:100FDE00EC2F00320030B7274130F200EE30890B93
:100FEE00F62FF20BF62F0032E02FF401F501200060
:020FFE00D82FEA
:020000040001F9
:04000E009CCFFFDEA6
:00000001FF
