:040000000128FB2FA9
:100C3A00253464340034F00023009E1C212E7008F1
:100C4A009A000800210011120C1022001D15230021
:100C5A009E169D171E121E159F1105309B00080037
:100C6A00F10020000E08F0007008B2007108013986
:100C7A00B212031DB21632088E000800F1002000DD
:100C8A000E08F0007008B200710801393212031D13
:100C9A00321632088E000800013400340A34003457
:100CAA0064340034E834033410342734563472344C
:100CBA006534613464343A342034003421001D0828
:100CCA0083391C389D009E178F309E0503309E0481
:100CDA00C230220097000032210011131D109D100E
:100CEA0008008030210095002000B30122008C0109
:100CFA00183021008C0023008C012000B201220050
:100D0A008E01083021008E00083023008E00080072
:100D1A00F401F50121009D149D18912E1C08033938
:100D2A00F200F3017208F4007308F5000830F43594
:100D3A00F50D890B9C2E1B08F200F3017208F407CB
:100D4A007308F53D9D107508F1007408F00008005D
:100D5A00780879040319D42EFD01FD0AF91BBF2E68
:100D6A000130F835F90D890BB62E0130FC007C08EC
:100D7A00FD07B32E79087B02031DC52E78087A0277
:100D8A00031CCB2E7808FA027908FB3B0130F936AE
:100D9A00F80C890BCC2E0130FD02031DBF2E7B08F7
:100DAA00F9007A08F8000800F501F60170087104E4
:100DBA000319082FF701F70AF11BED2E0130F03560
:100DCA00F10D890BE42E0130F4007408F707E12EC7
:100DDA000130F535F60D890BEE2E71087302031DED
:100DEA00F82E70087202031CFF2E7008F2027108B6
:100DFA00F33B75140130F136F00C890B002F0130EA
:100E0A00F702031DED2E7608F1007508F0000800C0
:100E1A005830210099001A1E102F8B018B13272698
:100E2A007626632621001D14F4302000AE002E0819
:100E3A00AF008D2671082000B1007008B0005B3049
:100E4A00A0008630A1004E271D302000A000863069
:100E5A00A1003108A3003008A2004E270330200069
:100E6A003102FF3003193002031C3F2F00303526B0
:100E7A0001304A2F200030083104031D492F003069
:100E8A004326013035264B2F0030432600303526C5
:100E9A001E2F22302000A4002408A80020002108C8
:100EAA00A5002008A400A00A0319A10A24088400A6
:100EBA00250885000008A6002608AD002D0803199C
:100ECA00080025302D0603196D2F2D082026532FD3
:100EDA002000A9012108A5002008A400A00A0319DE
:100EEA00A10A24088400250885000008AD00003AFC
:100EFA000319FA2F643A0319862F0D3A0319862F1C
:100F0A00532F280886008701403FAB00413FAC00C1
:100F1A000230A4002408A807AC1F9C2F0330A400A9
:100F2A002408A904AB09AC09AB0A0319AC0AAD0140
:100F3A00AD0A05302D060319C12F2D08A400A501FD
:100F4A00A435A50D5130240784008630253D85003F
:100F5A00003FA600013FA70027082C02031DB72F58
:100F6A0026082B02031CC12F0130A4002408AD0758
:100F7A0005302D06031DA22F290803390319C72F8F
:100F8A002D30202620002D08A4002408AA00FF30B6
:100F9A002000A4002408AA072A0A0319532F0A309A
:100FAA00F8000030F9002A08A400A501A435A50D0F
:100FBA005130240784008630253D8500003FF0002B
:100FCA00013FF1002C08F3002B08F200D926710822
:100FDA00FB007008FA00AD267808303E2000A60013
:100FEA002608AD002D082026CC2F08002000B201CB
:060FFA00B30120000D2FE1
:020000040001F9
:04000E0084CFFFDEBE
:00000001FF
