:02000000432893
:100008007E14803120007F08AF008B180B1E152846
:100018000C1D132818140130312300303F238B1096
:100028003E282700131A8B1D322820000C1E2F286B
:100038000030312301303F23AC2271082000D50065
:100048007008D4007730A0008330A1005508A300C1
:100058005408A2001821270013123E282000911EE0
:100068003E2871232000AE002E08D80023009901F5
:100078002000911220002F08FF007E10090044285C
:100088007B23DB007C23DC004430840000308500C7
:1000980017306B237E102000872A40302000C000D4
:1000A80040082100A00020003F08C1003E08C00011
:1000B800BE0A0319BF0A40088400410885000008E9
:1000C800C20042082100A5002508031908002530B0
:1000D80025060319722825085A2357282100A1014B
:1000E80020003F08C1003E08C000BE0A0319BF0A2D
:1000F800400884004108850000082100A500003A56
:1001080003191729643A03198D280D3A03198D2804
:100118005728200886008701403FA300413FA400DC
:1001280002302000C00040082100A007A41FA72813
:1001380003302000C00040082100A104A309A4093D
:10014800A30A0319A40AA501A50A0530250603195F
:10015800D22825082000C000C101C035C10DFD30DE
:10016800400784008230413D8500003FC200013FC6
:10017800C300430821002402031DC62820004208AA
:1001880021002302031CD22801302000C0004008AF
:100198002100A50705302506031DAD2821080339D0
:1001A8000319D8282D305A23210025082000C00023
:1001B80040082100A200FF302000C00040082100B4
:1001C800A207220A031957280A302000B800003075
:1001D800B900210022082000C000C101C035C10DAE
:1001E800FD30400784008230413D8500003FB0006B
:1001F800013FB100210024082000B300210023089A
:100208002000B200C52120003108BB003008BA0028
:100218002E2220003808303EC20042082100A500E6
:1002280025085A23DF28080022302000A4002408CB
:10023800A80020002108A5002008A400A00A03198E
:10024800A10A24088400250885000008A6002608BD
:10025800AD002D080319080025302D06031937298C
:100268002D0864231D292000A9012108A5002008C4
:10027800A400A00A0319A10A2408840025088500FF
:100288000008AD00003A0319C429643A031950293B
:100298000D3A031950291D29280886008701403F77
:1002A800AB00413FAC000230A4002408A807AC1FF3
:1002B80066290330A4002408A904AB09AC09AB0AD9
:1002C8000319AC0AAD01AD0A05302D0603198B29B7
:1002D8002D08A400A501A435A50DFD302407840030
:1002E8008230253D8500003FA600013FA700270872
:1002F8002C02031D812926082B02031C8B2901309F
:10030800A4002408AD0705302D06031D6C29290813
:100318000339031991292D30642320002D08A400E6
:100328002408AA00FF302000A4002408AA072A0AEB
:1003380003191D290A30F8000030F9002A08A40022
:10034800A501A435A50DFD30240784008230253D84
:100358008500003FF000013FF1002C08F3002B0856
:10036800F200FA217108FB007008FA005B22780895
:10037800303E2000A6002608AD002D0864239629EB
:1003880008002000B601B701300831040319F52927
:10039800B501B50AB11BDA290130B035B10D890BA9
:1003A800D1290130B4003408B507CE290130B6355B
:1003B800B70D890BDB2931083302031DE529300805
:1003C8003202031CEC293008B2023108B33B361460
:1003D8000130B136B00C890BED290130B502031D8F
:1003E800DA293708B1003608B0000800F501F6012F
:1003F800700871040319292AF701F70AF11B0E2A5C
:100408000130F035F10D890B052A0130F40074082C
:10041800F707022A0130F535F60D890B0F2A710806
:100428007302031D192A70087202031C202A70081F
:10043800F2027108F33B75140130F136F00C890BA8
:10044800212A0130F702031D0E2A7608F1007508EB
:10045800F00008002000380839040319562ABD01A5
:10046800BD0AB91B412A0130B835B90D890B382AA4
:100478000130BC003C08BD07352A39083B02031D82
:10048800472A38083A02031C4D2A3808BA023908A4
:10049800BB3B0130B936B80C890B4E2A0130BD027E
:1004A800031D412A3B08B9003A08B800080078083B
:1004B80079040319822AFD01FD0AF91B6D2A01300E
:1004C800F835F90D890B642A0130FC007C08FD071A
:1004D800612A79087B02031D732A78087A02031CB3
:1004E800792A7808FA027908FB3B0130F936F80CCA
:1004F800890B7A2A0130FD02031D6D2A7B08F90059
:100508007A08F80008006830210099001A1E8A2A23
:100518008B018B13CE2210234D23E7220B168B154C
:100528000B17210091168B17270013128B10200030
:10053800911223009D171D121D1621001D14003055
:10054800232307302000BE008330BF005120AB2A90
:10055800200018101708F200F3017208C60073088B
:10056800C7000830C635C70D890BB62A1608F20031
:10057800F3017208C6077308C73D4708C500460857
:10058800C40096019701C601C7014508F100440857
:10059800F0000800C030210095002000DA01220098
:1005A8008C013E3021008C0023008C01270011169D
:1005B8002000D90122008E01083021008E00083069
:1005C80023008E00080021001D0883391C389D0077
:1005D8009E178F309E0503309E04C230220097007C
:1005E8000330890BF52A0000210011131D109D10FE
:1005F8000800013400340A34003464340034E83428
:1006080003341034273453347434613472347434FA
:100618002E342E342E340034210011122300990177
:100628001D169E161E121E159F1117309B002100C5
:100638008C1423008C1022009D171D150800200023
:10064800B1000E08B0003008D9003108013959123C
:10065800031D591659088E000800F10020000E08E5
:10066800F0007008D900710801395912031D591694
:1006780059088E000800F10020000E08F0007008EC
:10068800D90071080139D912031DD91659088E00ED
:100698000800200098013F3098051808CF39103815
:1006A80098004030990080308B0008002000B0008E
:1006B80023009E1C5C2B2000300823009A000800B1
:1006C800F00023009E1C652B70089A000800640047
:1006D80080010131890B6C2B00342000911E712B95
:1006E8002300190808002534643420340034013408
:0206F8000034CC
:020000040001F9
:04000E0084CFFFDEBE
:00000001FF
