:0400000080317228B1
:100008007E14803120007F08F9008B180B1E2B28E6
:100018000C1D292870037104031D24286608670431
:10002800031D242818140130E6070030E73D00308E
:100038008E31E426803101308E31F2268031292834
:10004800200060036104031918148B106D28270021
:10005800131A8B1D572820000C1E54287003710496
:10006800031D502866036704031D50288F31C827D5
:10007800803175082100A4007608A500A601A70113
:1000880001308E31E426803100308E31F226803105
:100098002000E601E70154285E035F0403191814E1
:1000A800270013126D282000911E6D2801302100B1
:1000B800AC000030AD0023009D1864281D1D6B287E
:1000C8001D121D1601308E31E42680316D288E31C7
:1000D800D62679082000FF007E1009008031742898
:1000E800F001F101F201F301F4015830840000300D
:1000F800850018308E3199268031A0308400003078
:1001080085002C308E3199267E1020008531D62D21
:1001180030302000D1005108D7000130F000003005
:10012800F100210091163230200057060319A32848
:10013800210038082000D1005108D7009728210055
:10014800AC01AD018731702780310D302000D1001E
:10015800FB30890BAD28D10BAD28003220005708A1
:10016800D100D2015108A0005208A1008E31A82662
:100178008031210091121D141D1CC0280030200060
:10018800DB000030DA000030D9000030D800003041
:1001980065026430031964020318342987311B2768
:1001A800803120002108E9002008E80002306902B7
:1001B800013003196802031C262962086304031D21
:1001C800262966086704031DEF2818140130E60085
:1001D8000030E70021298F31E427803120002008F2
:1001E8002100A400200021082100A500A601A701E4
:1001F80020005808210024072000D10059082100B8
:10020800253D2000D2005A082100263D2000D300B9
:100218005B082100273D2000D4005408DB00530868
:10022800DA005208D9005108D8006408013EE400F9
:100238000030653DE500E601E7010130E2000030ED
:10024800E300CB28003069028030031968020318E4
:10025800CB2862036304031DCB28E201E301CB280A
:1002680021001D102000E401E50100302100A70055
:100278000030A6000030A5000030A40020005B0874
:10028800B3005A08B2005908B1005808B00000304D
:10029800AF000030AE000030AD006430AC008531F6
:1002A8008325803120002F08BD002E08BC002D08B2
:1002B800BB002C08BA0087314627803120003A0855
:1002C800C0003B08C1003C08C2008731B827803114
:1002D80020004008C3004108C4004208C50084311A
:1002E8002C24803120004608DB004508DA00440849
:1002F800D9004308D8005B08031D8B295A08031D41
:100308008B298E3058021230593B031CA0295B08F8
:10031800031DA0295A08031DA02983305802143050
:10032800593B0318A0293130D1005108EB000130A6
:100338008F311C278031A52930302000D100510889
:10034800EB002100911620006B08D100D201510862
:10035800A0005208A1008E31A82680310A30200062
:10036800D2002230D100A130890BB829D10BB8298D
:10037800D20BB82901302000AE008830AF005B08EE
:10038800B3005A08B2005908B1005808B0008231C9
:10039800EA22803187317027803120005B08031DF5
:1003A800DE295A08031DDE298E3058021230593BC7
:1003B800031C08005B08031D08005A08031D0800F9
:1003C800833058021430593B03180800F001F1013A
:1003D800D501D6015608803AD10080305102031D5C
:1003E800F729063055020318152A8E31C92680319F
:1003F80082302000D100DD30890B002AD10B002A81
:10040800003201302000D5070030D63D5608803A2A
:10041800D10080305102031D132A06305502031CF7
:10042800F92901308F311C27803182311C220800C4
:100438000B1723001D121D1630302000BA003A0891
:10044800BC0001308F310E278231333020003C064A
:100458000319352A210038082000BA003A08BC00E0
:10046800292A2100AC01AD0100308F310E278231DD
:100478000D302000BA00FB30890B402ABA0B402A05
:100488000032210038082000BA00BB013A08A00059
:100498003B08A1008E31A82682318731702782312E
:1004A800210038080319542AAC01AD010D30200091
:1004B800BA00FB30890B5E2ABA0B5E2A0032B830CC
:1004C800873195278231B8308431B32482312000B6
:1004D8002608EC002708ED00890D893B8909EE0004
:1004E800EF00873170278231210038080319782AF4
:1004F800AC01AD010D302000BA00FB30890B822A17
:10050800BA0B822A0032B830873195278231B83049
:100518008431B3248231200027082100AB00200059
:1005280026082100AA008731702782310030200078
:10053800AF000030AE000130AD006830AC006F088D
:10054800A3006E08A2006D08A1006C08A00000308E
:10055800A7000030A6000030A5006430A400863152
:10056800BE26823120002308B3002208B2002108E9
:10057800B1002008B00085318325823120002F0882
:10058800EF002E08EE002D08ED002C08EC006F0897
:10059800A3006E08A2006D08A1006C08A00000303E
:1005A800A7000030A6000030A5006430A400863102
:1005B800BE26823120002308EF002208EE00210821
:1005C800ED002008EC008331A22308003030200021
:1005D800B4003408B80020002F08B5002E08B40075
:1005E800AE0A0319AF0A34088400350885000008EC
:1005F800B6003608BD003D080319080025303D0641
:1006080003190B2B3D088E31B2268231EF2A2000C8
:10061800B9012F08B5002E08B400AE0A0319AF0AB5
:1006280034088400350885000008BD00003A031925
:10063800A12B643A0319242B0D3A0319242BEF2A12
:10064800380886008701403FBB00413FBC000230AC
:10065800B4003408B807BC1F3A2B0330B400340880
:10066800B904BB09BC09BB0A0319BC0ABD01BD0A10
:1006780005303D0603195F2B3D08B400B501B435BC
:10068800B50DF730340784008730353D8500003FCD
:10069800B600013FB70037083C02031D552B36084A
:1006A8003B02031C5F2B0130B4003408BD07053042
:1006B8003D06031D402B390803390319672B2D30DC
:1006C8008E31B226823120003D08B4003408BA00C9
:1006D800FF302000B4003408BA073A0A0319EF2A99
:1006E8000A30A8000030A9003A08B400B501B435B2
:1006F800B50DF730340784008730353D8500003F5D
:10070800A000013FA1003C08A3003B08A2008631DD
:100718008926823120002108AB002008AA008631F2
:10072800EE26823120002808303EB6003608BD008B
:100738003D088E31B22682316C2B08000130210031
:10074800B0000030B100911220006F08031DB52BD6
:100758006E08031DB52B89306C0213306D3B031CEA
:10076800BF2B01308F313827833101302000DE0064
:100778000030DF00D42B6F08031DD42B6E08031D37
:10078800D42B87306C0213306D3B0318D42B003008
:100798008F313827833101302000E0000030E1003C
:1007A800A801A90121002B0820002902031DE02B24
:1007B80021002A082000280203181C2C0B168B1570
:1007C80021002E082000A40021002F082000A500E9
:1007D800A601A70127086F02031DFC2B26086E023D
:1007E800031DFC2B25086D02031DFC2B24086C023D
:1007F800031C0A2C8F31AF278331200021082100E8
:10080800AF00200020082100AE00E42B0B128B1152
:1008180001308F312A2783312100AE01AF018E319B
:100828009426833101302000A8070030A93DD62B3B
:10083800DE01DF01E001E10100308F312A27833139
:1008480000308F313827833100308F311C27080062
:1008580020004308C7004408C8004508C900031021
:10086800480D490DCA004A08D0005008031D452C00
:100878000030C6000030C5000030C4000030C3009E
:1008880008004308C7004408C8004508C9001730D5
:10089800C936C80CC70C890B4C2C4708CA004A0833
:1008A800CB00C417FF30C305FF30C4050030C505B1
:1008B8004308CC004408CD004508CE00CF018E3057
:1008C800D002D01F832C5008803A8F3E0318752C15
:1008D8000030C6000030C5000030C4000030C3003E
:1008E80008000130CF36CE0CCD0CCC0C890B762C01
:1008F8000130C7004708D00703199C2C752C183005
:100908005002031C992C0030C6000030C50000308E
:10091800C4000030C30008000130CC35CD0DCE0D29
:10092800CF0D890B912C0130D0025008031D902C5B
:100938004B080319AA2CCC09CD09CE09CF09CC0A3A
:100948000319CD0A0319CE0A0319CF0A4F08C600A6
:100958004E08C5004D08C4004C08C300080020001C
:10096800AD002D088600870120300106031DC12C2B
:100978000130A8002808AD07B52C2D08860087018E
:10098800093001060319BC2CAB01AC01AA012D08E2
:10099800860087012D300106031DD72C0130A800E1
:1009A8002808AA07DE2C2D08860087012B300106AF
:1009B800031DE22C0130A8002808AD072D08860089
:1009C800870101088F3146278431031C092D200037
:1009D8002C08A1002B08A0000A30A2000030A300B8
:1009E8008731DB27843120002D0886008701010824
:1009F8002007A80021080318210AA9002808D03ECA
:100A0800AB00FF30293DAC00DE2C20002A0803197A
:100A1800192D2B09A8002C09A900A80A0319A90A4D
:100A28002808A6002908A70008002C08A7002B08FA
:100A3800A6000800200023080319272D22082104F6
:100A48002004031D382D0030A0000030A100003024
:100A5800A20008000130A5002508A3070130A2362E
:100A6800A10CA00C890B332DFE3022050319512D42
:100A78002E2D0130A5002508A3070130A00700305E
:100A880003180130A107003003180130A207013014
:100A9800A236A10CA00C890B4C2DFF30220503199E
:100AA8005E2D3D2D0130A3020130A035A10DA20D10
:100AB800890B592DA11B642D023023020318562DD2
:100AC80023186C2DFF30A0057F30A105FF30A2054B
:100AD8000310A30C2308A500A601A7011030A53513
:100AE800A60DA70D890B732D2508A0042608A104BF
:100AF8002708A204240803190800A21708000030D8
:100B08002000B8000030B7000030B6000030B50053
:100B18002F082E042D042C040319CD2DB901B90A70
:100B2800AF1BA22D0130AC35AD0DAE0DAF0D890B4D
:100B3800972D0130B4003408B907942D0130B5352C
:100B4800B60DB70DB80D890BA32D2F083302031D61
:100B5800B72D2E083202031DB72D2D083102031DB3
:100B6800B72D2C083002031CC22D2C08B0022D080A
:100B7800B13B2E08B23B2F08B33B35140130AF36DA
:100B8800AE0CAD0CAC0C890BC32D0130B902031DA2
:100B9800A22D3808AF003708AE003608AD0035087A
:100BA800AC0008008F31552785312100CD01CE01D9
:100BB8004E08803ACC0080304C02031DE52D0630EB
:100BC8004D020318032E8E31C9268531823021004B
:100BD800CC00DD30890BEE2DCC0BEE2D0032013030
:100BE8002100CD070030CE3D4E08803ACC00803041
:100BF8004C02031D012E06304D02031CE72D8631E1
:100C08004F2685310D302100CC00FB30890B0A2E90
:100C1800CC0B0A2E003280318C20803172282000C3
:100C2800A21F2A2E2009A6002109A7002209A80030
:100C3800A60A0319A70A0319A80A00302607A00064
:100C48000030273DA1008030283DA200A51F402E7E
:100C58002309A6002409A7002509A800A60A031944
:100C6800A70A0319A80A00302607A3000030273D69
:100C7800A4008030283DA5008030A2068030A5065B
:100C880025082202031D080024082102031D08006C
:100C9800230820020800210091160B1723009D1736
:100CA8001D121D1630302000A3002308A500313086
:100CB8002000250603196B2E210038082000A30008
:100CC8002308A50001308F31002786315B2E2100D3
:100CD800AC01AD0187317027863100308F31002794
:100CE80086310D302000A300FB30890B792EA30B31
:100CF800792E003220002508A300A4012308A000B3
:100D08002408A1008E31A82608002000A601A7010A
:100D1800200821040319B92EA501A50AA11B9E2E9E
:100D28000130A035A10D890B952E0130A4002408AF
:100D3800A507922E0130A635A70D890B9F2E2108F5
:100D48002302031DA92E20082202031CB02E20080E
:100D5800A2022108A33B26140130A136A00C890B5E
:100D6800B12E0130A502031D9E2E2708A1002608DA
:100D7800A000080000302000AB000030AA000030BE
:100D8800A9000030A800201CD12E2408A807250897
:100D9800A93D2608AA3D2708AB3D0130A435A50D7D
:100DA800A60DA70D890BD22E0130A336A20CA10CDB
:100DB800A00C890BD92E2308220421042004031D2A
:100DC800C72E2B08A3002A08A2002908A10028087A
:100DD800A00008002000280829040319162FAD01D7
:100DE800AD0AA91B012F0130A835A90D890BF82ED2
:100DF8000130AC002C08AD07F52E29082B02031D85
:100E0800072F28082A02031C0D2F2808AA022908E0
:100E1800AB3B0130A936A80C890B0E2F0130AD026F
:100E2800031D012F2B08A9002A08A800080021008B
:100E3800B601B7019D149D181F2F1C080339200007
:100E4800A200A30122082100B600200023082100E7
:100E5800B7000830B635B70D890B2E2F1B082000B8
:100E6800A200A30122082100B607200023082100C0
:100E7800B73D9D1037082000A1002100360820004A
:100E8800A00008008E302000BE003E08BF00FF30E2
:100E98003D0503195B2F0130BD36BC0CBB0CBA0CE9
:100EA800890B502F0130BE003E08BF074B2F3A0870
:100EB800A0003B08A1003C08A2003F08BE003E0875
:100EC800A300A40185311E2520002008BA002108AE
:100ED800BB002208BC0008002000A101A2012208D2
:100EE800803AA00080302002031D7C2F143021029C
:100EF8000318932F20002108B83E8600870181013E
:100F08000130A1070030A23D2208803AA0008030BD
:100F18002002031D912F14302102031C7E2FF201A1
:100F280008002000A700A501A60125082707A200A0
:100F380022088600870101080319080025082707E9
:100F4800A2002208860087010108A300A401230843
:100F5800A0002408A1008E31A82687310130200086
:100F6800A5070030A63D992F20004008A0004108A1
:100F7800A1004208A2000030A3000030A400003005
:100F8800A500863113268731031808002000400881
:100F9800A0004108A1004208A2008E319F2620002F
:100FA8002008C0002108C1002208C2000800200053
:100FB800A401A501201CE42F2208A4072308A53DAD
:100FC8000130A235A30D890BE52F0130A136A00C05
:100FD800890BEA2F20082104031DDE2F2508A10014
:100FE8002408A0000800013400340A3400346434B2
:100FF8000034E834033410342734253464340A3494
:021008000034B2
:101D28002000181096019701080064008001013115
:101D3800890B9A2E0034200022082104200403195C
:101D480008008030A206080023009E1CA82E200050
:101D5800111E0800200823009A0008002000A00097
:101D680023009E1CB42E2000200823009A0008009F
:101D7800200098013F3098051808CF39103898008E
:101D88004030990080308B00080020000C08A0002B
:101D98002008F400F41ED22EF412D32EF416740880
:101DA8008C00080023001908F5007208B83E860068
:101DB8008701750881000130F5007508F2070800F1
:101DC800F60020000E08F5007508F30076080139C2
:101DD800F312031DF31673088E000800F6002000A6
:101DE8000C08F5007508F40076080139F412031D93
:101DF800F41674088C0008002000A1000E08A0004A
:101E08002008F30021080139F312031DF3167308A3
:101E18008E0008002000A1000C08A0002008F40093
:101E280021080139F412031DF41674088C00080007
:101E38002000A1000E08A0002008F30021080139A5
:101E48007312031D731673088E0008002000A1008A
:101E58000E08A0002008F300210801397311031DA2
:101E6800731573088E0008002000A1000E08A0005A
:101E78002008F30021080139F310031DF314730837
:101E88008E0008002000A100A0013A3021020318AA
:101E9800532F30302102031C532FA001A00A200C1D
:101EA80008006830210099001A1E582F8B018B13E7
:101EB8008F317F278F318E31BC268F318F31692743
:101EC8008F318F3196278B17080021001D08833921
:101ED8001C389D009E178F309E0503309E04C3302A
:101EE800220097000330890B772F0000210011137F
:101EF8001D109D100800C03021009500F40122003B
:101F08008C011E3021008C0023008C012700111643
:101F1800F30122008E01083021008E0008302300D2
:101F28008E00080021001112230099011D131D16AF
:101F38001E139E161E121E159F1117309B0021009E
:101F48008C1423008C1021000C1023008C1022000C
:101F58009D171D15080020001708A200A3012208DC
:101F6800DC002308DD000830DC35DD0D890BB82FD7
:101F78001608A200A3012208DC072308DD3D5D083E
:101F8800A1005C08A0000800200018101708F7003E
:101F9800F8017708DC007808DD000830DC35DD0D55
:101FA800890BD22F1608F700F8017708DC077808A4
:101FB800DD3D960197015D08F6005C08F500080014
:101FC800200018101708A200A3012208DC0023082B
:101FD800DD000830DC35DD0D890BEE2F1608A20078
:101FE800A3012208DC072308DD3D960197015D085F
:081FF800A1005C08A000080034
:020000040001F9
:04000E0084CFFFDEBE
:00000001FF
