:040000000128FC2FA8
:100F8800803021009500F10122008C0101302300FE
:100F98008C00013021008C00F00122008E0123001A
:100FA8008E01083021008E00080058302100990079
:100FB8001A1EDC2F8B018B13C427711AE12F7016B0
:100FC800700820008E004130F200EE30890BEA2FC5
:100FD800F20BEA2F00327012700820008E004130A8
:100FE800F200EE30890BF62FF20BF62F0032E12FCC
:080FF800F001F1012000D92FE6
:020000040001F9
:04000E009CCFFFDEA6
:00000001FF
