:0400000080317228B1
:100008007E14803120007F08F9008B180B1E2B28E6
:100018000C1D292870037104031D24286608670431
:10002800031D242818140130E6070030E73D00308E
:100038008F310027803101308F310E2780312928F8
:10004800200060036104031918148B106D28270021
:10005800131A8B1D572820000C1E54287003710496
:10006800031D502866036704031D50288F31E427B9
:10007800803175082100A4007608A500A601A70113
:1000880001308F310027803100308F310E278031C9
:100098002000E601E70154285E035F0403191814E1
:1000A800270013126D282000911E6D2801302100B1
:1000B800AC000030AD0023009D1864281D1D6B287E
:1000C8001D121D1601308F31002780316D288E31A9
:1000D800F22679082000FF007E100900803174287C
:1000E800F001F101F201F301F4015830840000300D
:1000F800850018308E31B5268031A030840000305C
:1001080085002E308E31B5267E1020008531C32D16
:1001180030302000D1005108D7000130F000003005
:10012800F100210091163230200057060319A32848
:1001380021003A082000D1005108D7009728210053
:10014800AC01AD0187315D2780310D302000D10031
:10015800FB30890BAD28D10BAD28003220005708A1
:10016800D100D2015108A0005208A1008E31C42646
:100178008031210091121D141D1CC0280030200060
:10018800DB000030DA000030D9000030D800003041
:10019800650264300319640203183429873108277B
:1001A800803120002108E9002008E80002306902B7
:1001B800013003196802031C262962086304031D21
:1001C800262966086704031DEF2818140130E60085
:1001D8000030E70021298731E427803120002008FA
:1001E8002100A400200021082100A500A601A701E4
:1001F80020005808210024072000D10059082100B8
:10020800253D2000D2005A082100263D2000D300B9
:100218005B082100273D2000D4005408DB00530868
:10022800DA005208D9005108D8006408013EE400F9
:100238000030653DE500E601E7010130E2000030ED
:10024800E300CB28003069028030031968020318E4
:10025800CB2862036304031DCB28E201E301CB280A
:1002680021001D102000E401E50100302100A70055
:100278000030A6000030A5000030A40020005B0874
:10028800B3005A08B2005908B1005808B00000304D
:10029800AF000030AE000030AD006430AC008531F6
:1002A8007025803120002F08BD002E08BC002D08C5
:1002B800BB002C08BA0087313327803120003A0868
:1002C800C0003B08C1003C08C2008731A527803127
:1002D80020004008C3004108C4004208C50083311B
:1002E800A223803120004608DB004508DA004408D4
:1002F800D9004308D8005B08031D8B295A08031D41
:100308008B298E3058021230593B031CA0295B08F8
:10031800031DA0295A08031DA02983305802143050
:10032800593B0318A0293130D1005108EA000130A7
:100338008F3138278031A52930302000D10051086D
:10034800EA002100911620006A08D100D201510864
:10035800A0005208A1008E31C42680310A30200046
:10036800D2002230D100A130890BB829D10BB8298D
:10037800D20BB8290A302000AE008830AF005B08E5
:10038800B3005A08B2005908B1005808B0008231C9
:10039800EA22803187315D27803120005B08031D08
:1003A800DE295A08031DDE298E3058021230593BC7
:1003B800031C08005B08031D08005A08031D0800F9
:1003C800833058021430593B03180800F001F1013A
:1003D800D501D6015608803AD10080305102031D5C
:1003E800F729063055020318152A8E31E526803183
:1003F80082302000D100DD30890B002AD10B002A81
:10040800003201302000D5070030D63D5608803A2A
:10041800D10080305102031D132A06305502031CF7
:10042800F92901308F313827803182311C220800A8
:100438000B1723001D121D1630302000BA003A0891
:10044800BC0001308F312A278231333020003C062E
:100458000319352A21003A082000BA003A08BC00DE
:10046800292A2100AC01AD0100308F312A278231C1
:100478000D302000BA00FB30890B402ABA0B402A05
:10048800003221003A082000BA00BB013A08A00057
:100498003B08A1008E31C426823187315D27823125
:1004A80021003A080319542AAC01AD010D3020008F
:1004B800BA00FB30890B5E2ABA0B5E2A0032BA30CA
:1004C800873182278231BA308431A02482312000DA
:1004D8002608EC002708ED00890D893B8909EE0004
:1004E800EF0087315D27823121003A080319782A05
:1004F800AC01AD010D302000BA00FB30890B822A17
:10050800BA0B822A0032BA30873182278231BA3058
:100518008431A0248231200027082100AB0020006C
:1005280026082100AA0087315D278231003020008B
:10053800AF000030AE000130AD006830AC006F088D
:10054800A3006E08A2006D08A1006C08A00000308E
:10055800A7000030A6000030A5006430A400863152
:10056800AB26823120002308B3002208B2002108FC
:10057800B1002008B00085317025823120002F0895
:10058800EF002E08EE002D08ED002C08EC006F0897
:10059800A3006E08A2006D08A1006C08A00000303E
:1005A800A7000030A6000030A5006430A400863102
:1005B800AB26823120002308EF002208EE00210834
:1005C800ED002008EC008431292408003030200098
:1005D800B4003408B80020002F08B5002E08B40075
:1005E800AE0A0319AF0A34088400350885000008EC
:1005F800B6003608BD003D080319080025303D0641
:1006080003190B2B3D088E31CE268231EF2A2000AC
:10061800B9012F08B5002E08B400AE0A0319AF0AB5
:1006280034088400350885000008BD00003A031925
:10063800A12B643A0319242B0D3A0319242BEF2A12
:10064800380886008701403FBB00413FBC000230AC
:10065800B4003408B807BC1F3A2B0330B400340880
:10066800B904BB09BC09BB0A0319BC0ABD01BD0A10
:1006780005303D0603195F2B3D08B400B501B435BC
:10068800B50D0030340784008830353D8500003FC3
:10069800B600013FB70037083C02031D552B36084A
:1006A8003B02031C5F2B0130B4003408BD07053042
:1006B8003D06031D402B390803390319672B2D30DC
:1006C8008E31CE26823120003D08B4003408BA00AD
:1006D800FF302000B4003408BA073A0A0319EF2A99
:1006E8000A30A8000030A9003A08B400B501B435B2
:1006F800B50D0030340784008830353D8500003F53
:10070800A000013FA1003C08A3003B08A2008631DD
:100718007626823120002108AB002008AA00863105
:10072800DB26823120002808303EB6003608BD009E
:100738003D088E31CE2682316C2B080020004308FC
:10074800C7004408C8004508C9000310480D490DF2
:10075800CA004A08D0005008031DBB2B0030C60051
:100768000030C5000030C4000030C3000800430852
:10077800C7004408C8004508C9001730C936C80C66
:10078800C70C890BC22B4708CA004A08CB00C417FC
:10079800FF30C305FF30C4050030C5054308CC0051
:1007A8004408CD004508CE00CF018E30D002D01FBE
:1007B800F92B5008803A8F3E0318EB2B0030C60007
:1007C8000030C5000030C4000030C300080001300C
:1007D800CF36CE0CCD0CCC0C890BEC2B0130C700DE
:1007E8004708D0070319122CEB2B18305002031CB2
:1007F8000F2C0030C6000030C5000030C4000030A7
:10080800C30008000130CC35CD0DCE0DCF0D890BBE
:10081800072C0130D0025008031D062C4B08031981
:10082800202CCC09CD09CE09CF09CC0A0319CD0A51
:100838000319CE0A0319CF0A4F08C6004E08C5008F
:100848004D08C4004C08C300080001302100B00066
:100858000030B100911220006F08031D3C2C6E0877
:10086800031D3C2C89306C0213306D3B031C462C55
:1008780001308F315427843101302000DE000030F0
:10088800DF005B2C6F08031D5B2C6E08031D5B2CBF
:1008980087306C0213306D3B03185B2C00308F31AE
:1008A8005427843101302000E0000030E1000B16AD
:1008B8008B1521002E082000A40021002F082000FD
:1008C800A500A601A70127086F02031D752C26089D
:1008D8006E02031D752C25086D02031D752C240856
:1008E8006C02031C832C8F31CB2784312000210814
:1008F8002100AF00200020082100AE005D2C0B1263
:100908008B1101308F31462784312100AE01AF01B0
:100918008E31B02684312000DE01DF01E001E101E3
:1009280000308F314627843100308F31542784318D
:1009380000308F31382708002000AD002D088600D0
:10094800870120300106031DAE2C0130A8002808BD
:10095800AD07A22C2D08860087010930010603196E
:10096800A92CAB01AC01AA012D08860087012D3006
:100978000106031DC42C0130A8002808AA07CB2CA7
:100988002D08860087012B300106031DCF2C01306E
:10099800A8002808AD072D088600870101088F31B7
:1009A80062278431031CF62C20002C08A1002B0898
:1009B800A0000A30A2000030A3008731C827843184
:1009C80020002D088600870101082007A8002108BB
:1009D8000318210AA9002808D03EAB00FF30293DA2
:1009E800AC00CB2C20002A080319062D2B09A800DF
:1009F8002C09A900A80A0319A90A2808A600290889
:100A0800A70008002C08A7002B08A6000800200053
:100A180023080319142D220821042004031D252D61
:100A28000030A0000030A1000030A2000800013012
:100A3800A5002508A3070130A236A10CA00C890B3C
:100A4800202DFE30220503193E2D1B2D0130A50057
:100A58002508A3070130A007003003180130A107BB
:100A6800003003180130A2070130A236A10CA00CF7
:100A7800890B392DFF30220503194B2D2A2D013002
:100A8800A3020130A035A10DA20D890B462DA11B93
:100A9800512D023023020318432D2318592DFF30FE
:100AA800A0057F30A105FF30A2050310A30C230881
:100AB800A500A601A7011030A535A60DA70D890B25
:100AC800602D2508A0042608A1042708A2042408EC
:100AD80003190800A217080000302000B8000030F1
:100AE800B7000030B6000030B5002F082E042D04E2
:100AF8002C040319BA2DB901B90AAF1B8F2D013087
:100B0800AC35AD0DAE0DAF0D890B842D0130B400A1
:100B18003408B907812D0130B535B60DB70DB80DBC
:100B2800890B902D2F083302031DA42D2E083202A5
:100B3800031DA42D2D083102031DA42D2C083002FD
:100B4800031CAF2D2C08B0022D08B13B2E08B23B78
:100B58002F08B33B35140130AF36AE0CAD0CAC0CDE
:100B6800890BB02D0130B902031D8F2D3808AF0055
:100B78003708AE003608AD003508AC0008008F31E4
:100B8800712785312100CF01D0015008803ACE006D
:100B980080304E02031DD22D06304F020318F02D6F
:100BA8008E31E526853182302100CE00DD30890B7B
:100BB800DB2DCE0BDB2D003201302100CF070030BA
:100BC800D03D5008803ACE0080304E02031DEE2DF5
:100BD80006304F02031CD42D86313C2685310D305A
:100BE8002100CE00FB30890BF72DCE0BF72D0032FC
:100BF80080318C20803172282000A21F172E2009F6
:100C0800A6002109A7002209A800A60A0319A70A15
:100C18000319A80A00302607A0000030273DA100CC
:100C28008030283DA200A51F2D2E2309A6002409E7
:100C3800A7002509A800A60A0319A70A0319A80AE4
:100C480000302607A3000030273DA4008030283D4F
:100C5800A5008030A2068030A50625082202031DC3
:100C6800080024082102031D0800230820020800A8
:100C7800210091160B1723009D171D121D163030E9
:100C88002000A3002308A500313020002506031901
:100C9800582E21003A082000A3002308A50001309F
:100CA8008F311C278631482E2100AC01AD018731D8
:100CB8005D27863100308F311C2786310D302000AA
:100CC800A300FB30890B662EA30B662E0032200092
:100CD8002508A300A4012308A0002408A1008E3140
:100CE800C42608002000A601A70120082104031932
:100CF800A62EA501A50AA11B8B2E0130A035A10D9A
:100D0800890B822E0130A4002408A5077F2E01300C
:100D1800A635A70D890B8C2E21082302031D962EBC
:100D280020082202031C9D2E2008A2022108A33BB2
:100D380026140130A136A00C890B9E2E0130A50285
:100D4800031D8B2E2708A1002608A00008000030EC
:100D58002000AB000030AA000030A9000030A80035
:100D6800201CBE2E2408A8072508A93D2608AA3D50
:100D78002708AB3D0130A435A50DA60DA70D890B9D
:100D8800BF2E0130A336A20CA10CA00C890BC62ED5
:100D98002308220421042004031DB42E2B08A300D9
:100DA8002A08A2002908A1002808A000080020009D
:100DB800280829040319032FAD01AD0AA91BEE2E3B
:100DC8000130A835A90D890BE52E0130AC002C089F
:100DD800AD07E22E29082B02031DF42E28082A024B
:100DE800031CFA2E2808AA022908AB3B0130A936B1
:100DF800A80C890BFB2E0130AD02031DEE2E2B082B
:100E0800A9002A08A80008002100B801B9019D140A
:100E18009D180C2F1C0803392000A200A3012208EA
:100E28002100B800200023082100B9000830B83597
:100E3800B90D890B1B2F1B082000A200A301220853
:100E48002100B807200023082100B93D9D1039086A
:100E58002000A100210038082000A00008008E30E2
:100E68002000BE003E08BF00FF303D050319482F93
:100E78000130BD36BC0CBB0CBA0C890B3D2F0130C0
:100E8800BE003E08BF07382F3A08A0003B08A10063
:100E98003C08A2003F08BE003E08A300A40185311B
:100EA8000B2520002008BA002108BB002208BC003E
:100EB80008002000A101A2012208803AA000803089
:100EC8002002031D692F143021020318802F2000EF
:100ED8002108BA3E8600870181010130A107003050
:100EE800A23D2208803AA00080302002031D7E2FF8
:100EF80014302102031C6B2FF20108002000A70008
:100F0800A501A60125082707A20022088600870157
:100F180001080319080025082707A20022088600EF
:100F280087010108A300A4012308A0002408A10048
:100F38008E31C426873101302000A5070030A63D38
:100F4800862F20004008A0004108A1004208A20006
:100F58000030A3000030A4000030A5008631002630
:100F680087310318080020004008A0004108A100AC
:100F78004208A2008E31BB2620002008C0002108AC
:100F8800C1002208C20008002000A401A501201CFD
:100F9800D12F2208A4072308A53D0130A235A30DAF
:100FA800890BD22F0130A136A00C890BD72F20082E
:100FB8002104031DCB2F2508A1002408A000080048
:100FC800200018101708A200A3012208DC0023083B
:100FD800DD000830DC35DD0D890BEE2F1608A20088
:100FE800A3012208DC072308DD3D960197015D086F
:100FF800A1005C08A0000800013400340A34003461
:1010080064340034E8340334103427342534643429
:041018000A34003462
:101D600020001810960197010800640080010131DD
:101D7000890BB62E00342000220821042004031908
:101D800008008030A206080023009E1CC42E2000FC
:101D9000111E0800200823009A0008002000A0005F
:101DA00023009E1CD02E2000200823009A0008004B
:101DB000200098013F3098051808CF391038980056
:101DC0004030990080308B00080020000C08A000F3
:101DD0002008F400F41EEE2EF412EF2EF416740810
:101DE0008C00080023001908F5007208BA3E86002E
:101DF0008701750881000130F5007508F2070800B9
:101E0000F60020000E08F5007508F3007608013989
:101E1000F312031DF31673088E000800F60020006D
:101E20000C08F5007508F40076080139F412031D5A
:101E3000F41674088C0008002000A1000E08A00011
:101E40002008F30021080139F312031DF31673086B
:101E50008E0008002000A1000C08A0002008F4005B
:101E600021080139F412031DF41674088C000800CF
:101E70002000A1000E08A0002008F300210801396D
:101E80007312031D731673088E0008002000A10052
:101E90000E08A0002008F300210801397311031D6A
:101EA000731573088E0008002000A1000E08A00022
:101EB0002008F30021080139F310031DF3147308FF
:101EC0008E0008002000A100A0013A302102031872
:101ED0006F2F30302102031C6F2FA001A00A200CAD
:101EE00008006830210099001A1E742F8B018B1393
:101EF0008F319B278F318E31D8268F318F318527B7
:101F00008F318F31B2278B17080021001D088339CC
:101F10001C389D009E178F309E0503309E04C330F1
:101F2000220097000330890B932F0000210011132A
:101F30001D109D100800C03021009500F401220002
:101F40008C011E3021008C0023008C01270011160B
:101F5000F30122008E01083021008E00083023009A
:101F60008E00080021001112230099011D131D1677
:101F70001E139E161E121E159F1117309B00210066
:101F80008C1423008C1021000C1023008C102200D4
:101F90009D171D15080020001708A200A3012208A4
:101FA000DC002308DD000830DC35DD0D890BD42F83
:101FB0001608A200A3012208DC072308DD3D5D0806
:101FC000A1005C08A0000800200018101708F70006
:101FD000F8017708DC007808DD000830DC35DD0D1D
:101FE000890BEE2F1608F700F8017708DC07780850
:101FF000DD3D960197015D08F6005C08F5000800DC
:020000040001F9
:04000E0084CFFFDEBE
:00000001FF
