:02000000602876
:100008007E14803120007F08FD008B180B1E1D28F0
:100018000C1D1B2832083304031D1728181401303F
:10002800B2070030B33D01305E2100306C218B10E7
:100038005B282700131A8B1D422820000C1E3F281E
:1000480032033304031D3B28E02071082000B70069
:100058007008B6000130AA070030AB3DB201B30109
:10006800C8302A062B04031D3B28AA01AB01013026
:100078006C2100305E21270013125B282000911E9E
:100088005B289421B621FB007B082000C000BC300F
:10009800F1008130F2004008FB00FC017B08F3000E
:1000A8007C08F4006E2023009901200091127D083D
:1000B8002000FF007E1009006128C021C900C1216D
:1000C800CA0020308400003085002330B0217E1023
:1000D8002000B1287330F5007508F9007208F600A1
:1000E8007108F500F10A0319F20A75088400760808
:1000F80085000008F7007708FA007A080319080055
:1001080025307A0603198B287A08A9217228F80164
:100118009B287908860087010108F5007508FA0010
:100128000230F5007508F9077A08A92172287208C3
:10013800F6007108F500F10A0319F20A750884003F
:10014800760885000008FA00003A0319B028633AD7
:1001580003198D28982872280800FC202000C70160
:10016800C8014808803AC50080304502031DBE28F2
:10017800063047020318DE28872102302000C60017
:100188004530C500A930890BC728C50BC728C60B41
:10019800C728003201302000C7070030C83D480892
:1001A800803AC50080304502031DDC28063047022E
:1001B800031CC028A121DE28200018101708F2000F
:1001C800F3017208A6007308A7000830A635A70D2A
:1001D800890BEA281608F200F3017208A6077308CB
:1001E800A73D960197012708F1002608F0000800AE
:1001F8006830210099001A1EFF288B018B131621E5
:100208007A2148212F218B1703302000C4008A301F
:10021800C3005530890B0E29C30B0E29C40B0E29B8
:1002280000320800C030210095002000C2012200E1
:100238008C013E3021008C0023008C012700111610
:100248002000C10122008E01083021008E000830F4
:1002580023008E00080021001112230099011D13AC
:100268001D161E139E161E121E159F1117309B0079
:1002780021008C1423008C1021000C1023008C10FA
:1002880022009D171D15080021001D0883391C3800
:100298009D009E178F309E0503309E04C3302200B8
:1002A80097000330890B56290000210011131D10F7
:1002B8009D100800F10020000E08F0007008C10031
:1002C800710801394112031D411641088E000800CA
:1002D800F10020000E08F0007008C1007108013913
:1002E800C112031DC11641088E00080020009801A4
:1002F8003F3098051808CF391038980040309900D9
:1003080080308B00080020000E08C3004308C1009D
:10031800411E902941129129411641088E0008007A
:1003280020000E08F0007008C100C11E9D29C112EE
:100338009E29C11641088E000800210091160B174E
:1003480023009D171D121D16A829F00023009E1CCE
:10035800AA2970089A000800640080010131890BFD
:10036800B12900342000911EB6292300190808007D
:0C037800253463340034003401340034B8
:020000040001F9
:04000E0084CFFFDEBE
:00000001FF
